:1000000000308A00292800000A108A100A1182078D
:100010003F3486345B344F3466346D347D3407347A
:100020007F346F342230840083130008031926289C
:100030000530F800F701F70B1B28F80B1A282E30B3
:10004000F700F70B21282428800B18288A110A12A0
:100050006D28840183131F308305831603178711CE
:100060000C3003139900E2309800D03083129800CE
:10007000831603170908C039890003131F129F1242
:10008000003003178800831287018801890100303E
:1000900083160313850086008800073083128500CD
:1000A00008308500A10121080A3C031C71282108A1
:1000B0000420F800A200A20922088600A00120085E
:1000C0000A3C031C6F2820080420F800A200A209A3
:1000D00022088800C830A2001228A00A5F28A10ABE
:0600E000532850286300C4
:04400E00F22FFF3F4F
:00000001FF
;PIC16F887
